:1000000018EF00F0EA6A050EE96EEF50D8B417EF6A
:1000100000F0010E016E006A002EFED7012EFBD704
:100020004A0E006E002EFED700D0EF2EF2D712003F
:10003000F86AD09EF40E046EC150C00B0F09C16E59
:10004000070EB46E956A790E8C6E04C005F0DADF87
:10005000956A770E8C6E04C005F0D4DF956A300E79
:100060008C6E04C005F0CEDF956A390E8C6E04C02C
:0800700005F0C8DFE7D703002B
:020000040030CA
:0E0000003FC03E1E0087A1000FC00FE00F4062
:00000001FF
;PIC18F4550
;CRC=3B40  CREATED="18-may.-20 09:57"
